:100000000C9462000C948A000C948A000C948A0070
:100010000C948A000C948A000C948A000C948A0038
:100020000C948A000C948A000C948A000C948A0028
:100030000C948A000C948A000C948A000C948A0018
:100040000C949B040C948A000C9469040C94430453
:100050000C948A000C948A000C948A000C948A00F8
:100060000C948A000C948A000000000023002600F3
:10007000290000000000240027002A0000000000E2
:10008000250028002B0004040404040404040202D4
:100090000202020203030303030301020408102007
:1000A0004080010204081020010204081020000012
:1000B0000008000201000003040700000000000027
:1000C00000002A0511241FBECFEFD8E0DEBFCDBF50
:1000D00011E0A0E0B1E0E6E5F3E102C005900D9289
:1000E000A63AB107D9F722E0A6EAB1E001C01D9215
:1000F000A435B207E1F710E0C2E6D0E004C02197D2
:10010000FE010E94B107C136D107C9F70E947305ED
:100110000C94A9090C940000AF92BF92CF92DF9289
:10012000EF92FF920F931F93CF93DF936C017B01AC
:100130008B01040F151FEB015E01AE18BF08C0173D
:10014000D10759F06991D601ED91FC910190F081B0
:10015000E02DC6010995892B79F7C501DF91CF9173
:100160001F910F91FF90EF90DF90CF90BF90AF90D5
:100170000895FC01538D448D252F30E0842F90E0AD
:10018000821B930B541710F0CF9608950197089592
:10019000FC01918D828D981761F0A28DAE0FBF2F5B
:1001A000B11D5D968C91928D9F5F9F73928F90E0B1
:1001B00008958FEF9FEF0895FC01918D828D981720
:1001C00031F0828DE80FF11D858D90E008958FEF5D
:1001D0009FEF0895FC01918D228D892F90E0805C26
:1001E0009F4F821B91098F73992708958FEA91E0A1
:1001F0000E94EA0021E0892B09F420E0822F089573
:1002000080E090E0892B29F00E94F60081110C9487
:1002100000000895FC01A48DA80FB92FB11DA35AA9
:10022000BF4F2C91848D90E001968F739927848F16
:10023000A689B7892C93A089B1898C918370806439
:100240008C93938D848D981306C00288F389E02DDA
:1002500080818F7D80830895EF92FF920F931F938B
:10026000CF93DF93EC0181E0888F9B8D8C8D981369
:100270001AC0E889F989808185FF15C09FB7F89475
:10028000EE89FF896083E889F989808183708064C1
:1002900080839FBF81E090E0DF91CF911F910F910C
:1002A000FF90EF900895F62E0B8D10E00F5F1F4F1B
:1002B0000F731127E02E8C8D8E110CC00FB607FC2A
:1002C000FACFE889F989808185FFF5CFCE010E94B8
:1002D0000A01F1CFEB8DEC0FFD2FF11DE35AFF4F1B
:1002E000F0829FB7F8940B8FEA89FB898081806246
:1002F000CFCFCF93DF93EC01888D8823B9F0AA8903
:10030000BB89E889F9898C9185FD03C0808186FDD0
:100310000DC00FB607FCF7CF8C9185FFF2CF80811F
:1003200085FFEDCFCE010E940A01E9CFDF91CF9189
:10033000089590E0FC01E255FF4F2491FC01E65640
:10034000FF4F3491FC01EA57FF4FE491EE23C9F0CF
:10035000222339F0233001F1A8F4213019F12230A1
:1003600029F1F0E0EE0FFF1FE458FF4FA591B49183
:100370008FB7F894EC91611126C030953E233C93E1
:100380008FBF08952730A9F02830C9F0243049F7ED
:10039000809180008F7D03C0809180008F77809353
:1003A0008000DFCF84B58F7784BDDBCF84B58F7DB0
:1003B000FBCF8091B0008F778093B000D2CF809137
:1003C000B0008F7DF9CF3E2BDACFCF93DF9390E053
:1003D000FC01E656FF4F24918A579F4FFC01849100
:1003E0008823D1F090E0880F991FFC01EE58FF4F51
:1003F000A591B491FC01E458FF4FC591D4916111CE
:100400000EC09FB7F8948C91E22FE0958E238C93C9
:100410002881E223E8839FBFDF91CF9108958FB7B2
:10042000F894EC91E22BEC938FBFF6CF3FB7F894A2
:100430008091AB019091AC01A091AD01B091AE0162
:1004400026B5A89B05C02F3F19F00196A11DB11D2F
:100450003FBFBA2FA92F982F8827BC01CD01620F6B
:10046000711D811D911D42E0660F771F881F991F26
:100470004A95D1F708958F929F92AF92BF92CF92F3
:10048000DF92EF92FF926B017C010E9416024B01FA
:100490005C01C114D104E104F104B9F00E94160218
:1004A000681979098A099B09683E7340810591059D
:1004B00080F321E0C21AD108E108F10888EE880E25
:1004C00083E0981EA11CB11CE4CFFF90EF90DF9059
:1004D000CF90BF90AF909F908F9008950F931F93F0
:1004E000CF93C82F8B0161E00E94990128EE33E081
:1004F000D8010E94AA0724EB30E040E050E00E94BF
:10050000230728513C4F4F4F5F4F220F331F220FBD
:10051000331F25503109C9010197F1F760E08C2F95
:100520000E9499016AE070E080E090E0CF911F9115
:100530000F910C943B0242E050E068E171E08FEAD9
:1005400091E00C948C00CF93DF93FC01019000208C
:10055000E9F73197AF01481B590BBC018FEA91E0D5
:100560000E948C00EC010E949B028C0F9D1FDF916A
:10057000CF910895CF93DF93FC0144815581608131
:1005800071818FEA91E00E948C00EC010E949B0235
:100590008C0F9D1FDF91CF9108950F931F93CF93E1
:1005A000DF93EC0188819981009759F02A813B8182
:1005B0002617370730F081E0DF91CF911F910F911F
:1005C00008958B016F5F7F4F0E94DC08009759F000
:1005D000998388831B830A832C813D81232B59F7C0
:1005E000FC011082E8CF80E0E7CFCF93DF93EC01EE
:1005F00088819981009711F00E945308198218820E
:100600001D821C821B821A82DF91CF910895CF92A6
:10061000DF92EF92FF920F931F93CF93DF9300D05F
:1006200000D000D01F92CDB7DEB77C01CB014AE0ED
:100630009E012F5F3F4F6901B9010E94F906F60143
:1006400001900020E9F73197EC19FD09D9F0D701A5
:1006500014960D911C910E0F1F1FB801C7010E9427
:10066000CD028823F9F0F7012081318184819581C1
:10067000B601820F931F0E94A209D70115961C9301
:100680000E931497C70127960FB6F894DEBF0FBEDE
:10069000CDBFDF91CF911F910F91FF90EF90DF9031
:1006A000CF900895C7010E94F502ECCFEF92FF9220
:1006B0000F931F93CF93DF93EC01FB01E080F18058
:1006C000E114F10411F10481158101151105A9F05E
:1006D0008C819D81080F191FB801CE010E94CD02A7
:1006E000882399F0288139818C819D81B701820FFF
:1006F000931F0E94A2091D830C83CE01DF91CF912D
:100700001F910F91FF90EF900895CE010E94F50286
:10071000F4CFEF92FF920F931F93CF93DF93EC01EF
:100720007B01198218821B821A821D821C82FB01A6
:1007300001900020E9F731978F01061B170BB801D4
:100740000E94CD02811109C0CE01DF91CF911F918E
:100750000F91FF90EF900C94F5021D830C83B7016D
:1007600088819981DF91CF911F910F91FF90EF9038
:100770000C94A209FC0180819181009711F00C94E6
:1007800053080895EF92FF920F931F93CF93DF9337
:10079000EC01198218821B821A821D821C82861724
:1007A000970719F1FB010081118101151105E9F08D
:1007B000E480F580B7010E94CD02811109C0CE010D
:1007C000DF91CF911F910F91FF90EF900C94F50264
:1007D000FD82EC82B80188819981DF91CF911F91D0
:1007E0000F91FF90EF900C94A209DF91CF911F9190
:1007F0000F91FF90EF9008950F931F93CF93DF9386
:10080000EC0160E088810E94990183E090E001970B
:10081000F1F761E088810E94990183E290E00197FD
:10082000F1F760E088810E949901898190E0FC01E4
:10083000E656FF4F6491FC01EA57FF4FE491F0E068
:10084000EE0FFF1FE859FF4F8591949100E412E4E9
:100850002FE030E0462F0E94E50461157105810507
:10086000910529F06F5F7F4F8F4F9F4F9F702BE354
:1008700030E040E050E00E947907C901DF91CF915C
:100880001F910F9108951F920F920FB60F9211248E
:100890002F933F934F935F936F937F938F939F9388
:1008A000AF93BF93EF93FF938FEA91E00E940A0109
:1008B000FF91EF91BF91AF919F918F917F916F9138
:1008C0005F914F913F912F910F900FBE0F901F900E
:1008D00018951F920F920FB60F9211242F938F939A
:1008E0009F93EF93FF93E091BF01F091C00180814E
:1008F000E091C501F091C60182FD1BC090818091FD
:10090000C8018F5F8F732091C901821741F0E09178
:10091000C801F0E0E155FE4F958F8093C801FF912B
:10092000EF919F918F912F910F900FBE0F901F907D
:1009300018958081F4CF1F920F920FB60F92112459
:100940002F933F938F939F93AF93BF938091A70172
:100950009091A801A091A901B091AA013091A6019E
:1009600023E0230F2D3758F50196A11DB11D2093CB
:10097000A6018093A7019093A801A093A901B09329
:10098000AA018091AB019091AC01A091AD01B09111
:10099000AE010196A11DB11D8093AB019093AC01F6
:1009A000A093AD01B093AE01BF91AF919F918F9194
:1009B0003F912F910F900FBE0F901F90189526E832
:1009C000230F0296A11DB11DD2CFCF92DF92EF92DD
:1009D000FF920F931F93E82FF92F05C001501109C3
:1009E0002109310961F1908196239417B9F305C06B
:1009F000015011092109310911F1908196239413B5
:100A0000F7CFC12CD12CE12CF12C0AC08FEFC81AE2
:100A1000D80AE80AF80A0C151D052E053F0579F0DD
:100A200080818623841791F36C2D7D2D8E2D9F2D33
:100A30001F910F91FF90EF90DF90CF90089560E0AD
:100A400070E080E090E01F910F91FF90EF90DF90B9
:100A5000CF900895EFEAF1E01382128288EE93E0DE
:100A6000A0E0B0E084839583A683B7838AE091E019
:100A70009183808385EC90E09587848784EC90E077
:100A80009787868780EC90E0918B808B81EC90E05B
:100A9000938B828B82EC90E0958B848B86EC90E03C
:100AA000978B868B118E128E138E148E61E084E0EC
:100AB0000E94E50160E085E00E94E501EEE4F2E0DD
:100AC00084E0808385E0818361E08CE00E94E50121
:100AD00060E08AE00E94E501ECE4F2E08CE08083D3
:100AE0008AE081830895CF93DF93CDB7DEB7629715
:100AF0000FB6F894DEBF0FBECDBF789484B5826088
:100B000084BD84B5816084BD85B5826085BD85B5B1
:100B1000816085BD80916E00816080936E0010922F
:100B200081008091810082608093810080918100AA
:100B3000816080938100809180008160809380003B
:100B40008091B10084608093B1008091B000816099
:100B50008093B00080917A00846080937A008091C5
:100B60007A00826080937A0080917A00816080931D
:100B70007A0080917A00806880937A001092C10098
:100B8000E091BF01F091C00182E08083E091BB0160
:100B9000F091BC011082E091BD01F091BE018FEC9B
:100BA00080831092C701E091C301F091C40186E0F7
:100BB0008083E091C101F091C201808180618083D6
:100BC000E091C101F091C201808188608083E09151
:100BD000C101F091C201808180688083E091C101F0
:100BE000F091C20180818F7D808361E086E00E9468
:100BF000E50161E08BE00E94E50100E010E070E0BB
:100C000060E086E090E00E946E026AE570E08BE0B2
:100C100090E00E946E026BE171E0CE0101960E94AD
:100C200089038EE492E00E94FC037C016FE171E095
:100C3000CE010D960E948903BE01635F7F4FCE01F6
:100C400007960E94C203B701CE0107960E940703D0
:100C5000BE016F5F7F4F0E9456030E94BA02CE0111
:100C600007960E94BA03CE010D960E94BA03CE01E8
:100C700001960E94BA0368EE73E080E090E00E9463
:100C80003B028EE492E00E94FC03449708F0A8C067
:100C90006BE171E0CE0101960E9489038EE492E03F
:100CA0000E94FC037C0166E371E0CE010D960E9478
:100CB0008903BE01635F7F4FCE0107960E94C20386
:100CC000B701CE0107960E940703BE016F5F7F4FF9
:100CD0000E9456030E94BA02CE0107960E94BA03F0
:100CE000CE010D960E94BA03CE0101960E94BA036E
:100CF0008EE491E00E94A30268EE73E080E090E051
:100D00000E943B026AE570E086E090E00E946E027D
:100D100068EE73E080E090E00E943B028CE492E099
:100D20000E94FC034F9708F452C070E060E08BE033
:100D300090E00E946E026BE171E0CE0101960E948C
:100D400089038CE492E00E94FC037C0164E671E07C
:100D5000CE010D960E948903BE01635F7F4FCE01D5
:100D600007960E94C203B701CE0107960E940703AF
:100D7000BE016F5F7F4F0E9456030E94BA02CE01F0
:100D800007960E94BA03CE010D960E94BA03CE01C7
:100D900001960E94BA0389E791E00E94A30268EEDF
:100DA00073E080E090E00E943B026AE570E08BE037
:100DB00090E00E946E020115110509F420CF0E94F7
:100DC000F600882309F41BCF0E94000018CF64EBC3
:100DD00070E08BE090E00E946E0284E891E0DDCF4D
:100DE0008FE891E00E94A30270E060E086E090E06E
:100DF000E0CFBB27FB015527AA27880F991FAA1F01
:100E0000A41710F0A41B83955051B9F7A05DAA3325
:100E100008F0A95DA193009779F7B111B1931192F0
:100E2000CB010C941307DC01FC01672F7191772330
:100E3000E1F7329704C07C916D9370836291AE1795
:100E4000BF07C8F30895052E97FB1EF400940E9477
:100E50003A0757FD07D00E94790707FC03D04EF4EC
:100E60000C943A0750954095309521953F4F4F4F40
:100E70005F4F089590958095709561957F4F8F4F46
:100E80009F4F08952F923F924F925F926F927F9261
:100E90008F929F92AF92BF92CF92DF92EF92FF928A
:100EA0000F931F93CF93DF93CDB7DEB7CA1BDB0B36
:100EB0000FB6F894DEBF0FBECDBF09942A883988DB
:100EC00048885F846E847D848C849B84AA84B984E2
:100ED000C884DF80EE80FD800C811B81AA81B981EE
:100EE000CE0FD11D0FB6F894DEBF0FBECDBFED0102
:100EF0000895A1E21A2EAA1BBB1BFD010DC0AA1F5B
:100F0000BB1FEE1FFF1FA217B307E407F50720F072
:100F1000A21BB30BE40BF50B661F771F881F991FED
:100F20001A9469F760957095809590959B01AC0136
:100F3000BD01CF010895A29FB001B39FC001A39F3F
:100F4000700D811D1124911DB29F700D811D112402
:100F5000911D08950E949B07B7FF0895821B930B74
:100F60000895EE0FFF1F0590F491E02D09940F9363
:100F70001F93CF93DF938230910510F482E090E0CD
:100F8000E0915202F091530230E020E0B0E0A0E0A6
:100F9000309799F42115310509F44AC0281B390B03
:100FA00024303105D8F58A819B816115710589F15D
:100FB000FB0193838283FE0111C040815181028134
:100FC000138148175907E0F04817590799F410970B
:100FD00061F012960C93129713961C933296CF01E0
:100FE000DF91CF911F910F910895009352021093BA
:100FF0005302F4CF2115310551F04217530738F051
:10100000A901DB019A01BD01DF01F801C1CFEF01A8
:10101000F9CF9093530280935202CDCFFE01E20F9D
:10102000F31F819391932250310939832883D7CFBD
:101030002091500230915102232B41F42091020162
:10104000309103013093510220935002209100010E
:10105000309101012115310541F42DB73EB7409182
:10106000040150910501241B350BE0915002F091D1
:101070005102E217F307A0F42E1B3F0B2817390784
:1010800078F0AC014E5F5F4F2417350748F04E0FE4
:101090005F1F5093510240935002819391939FCFD1
:1010A000F0E0E0E09CCFCF93DF930097E9F0FC0104
:1010B000329713821282A0915202B0915302ED0135
:1010C00030E020E01097A1F420813181820F931F3E
:1010D00020915002309151022817390709F061C060
:1010E000F0935102E0935002DF91CF910895EA010D
:1010F000CE17DF07E8F54A815B819E014115510556
:10110000B1F7E901FB83EA8349915991C40FD51FD7
:10111000EC17FD0761F4808191810296840F951F81
:10112000E90199838883828193819B838A83F0E09C
:10113000E0E012968D919C9113970097B9F52D914F
:101140003C911197CD010296820F931F209150027E
:10115000309151022817390739F6309751F510921E
:10116000530210925202B0935102A0935002BCCF8E
:10117000D383C28340815181840F951FC817D9073B
:1011800061F44E5F5F4F88819981480F591F5183E9
:1011900040838A819B81938382832115310509F0E5
:1011A000B0CFF0935302E09352029ECFFD01DC01D9
:1011B000C0CF13821282D7CFB0E0A0E0E2EEF8E019
:1011C0000C9444078C01009751F4CB010E94B7079F
:1011D0008C01C801CDB7DEB7E0E10C946007FC01DB
:1011E000E60FF71F9C0122503109E217F30708F4BC
:1011F0009DC0D901CD91DC911197C617D70798F002
:10120000C530D10530F3CE0104978617970708F350
:10121000C61BD70B2297C193D1936D937C93CF01BB
:101220000E945308D6CF5B01AC1ABD0A4C018C0E4C
:101230009D1EA0915202B0915302512C412CF12CD1
:10124000E12C109731F58091500290915102881550
:10125000990509F05CC04616570608F058C0809101
:10126000000190910101009741F48DB79EB7409124
:10127000040150910501841B950BE817F90708F04C
:1012800055C0F0935102E0935002F90171836083DD
:10129000A0CF8D919C91119712966C9012971396F6
:1012A0007C901397A815B90559F56C0142E0C40E5E
:1012B000D11CCA14DB0420F1AC014A195B09DA0124
:1012C0001296159780F06282738251834083D90110
:1012D0006D937C93E114F10471F0D7011396FC93A4
:1012E000EE93129776CF22968C0F9D1FF901918372
:1012F0008083F301EFCFF0935302E093520269CF62
:101300004816590608F42C017D01D3019ACFCB0170
:101310000E94B7077C01009749F0AE01B8010E9416
:101320009909C8010E945308870153CF10E000E0DB
:1013300050CFFB01DC0102C001900D9241505040A2
:10134000D8F70895FB01DC0101900D920020E1F730
:061350000895F894FFCFA0
:10135600000054028000000000002C018C00B9003F
:101366007901EA00C800DC000D0A0020636D004424
:10137600697374616E6369612064612078C3AD63CB
:101386006172613A200044697374C3A26E63696135
:101396002064612078C3AD636172613A20004162C6
:1013A60072696E646F20636F6D70617274696D65CA
:1013B6006E746F0044697374C3A26E6369612064BE
:1013C60061206DC3A36F3A200043616665206C6F90
:1013D6006E676F004361666520637572746F004EB9
:1013E600616F2074656D207175652066617A65721E
:0613F60020636166650042
:00000001FF
