:100000000C945E000C9486000C9486000C94860080
:100010000C9486000C9486000C9486000C94860048
:100020000C9486000C9486000C9486000C94860038
:100030000C9486000C9486000C9486000C94860028
:100040000C94E4050C9486000C94B2050C948C0579
:100050000C9486000C9486000C9486000C94860008
:100060000C9486000C948600000000080002010039
:100070000003040700000000000000000000000072
:10008000250028002B0000000000240027002A0083
:10009000040404040404040402020202020203032E
:1000A0000303030301020408102040800102040836
:1000B00010200102040810202E06310811241FBE52
:1000C000CFEFD8E0DEBFCDBF12E0A0E0B1E0E4E8C2
:1000D000F7E102C005900D92A434B107D9F722E0F0
:1000E000A4E4B2E001C01D92AD3FB207E1F710E019
:1000F000CDE5D0E004C02197FE010E94AC09CC35CB
:10010000D107C9F70E9466060C94B50B0C94000049
:1001100090E0FC01EC55FF4F249180579F4FFC016C
:100120008491882399F090E0880F991FFC01EA5789
:10013000FF4FA591B491FC01E458FF4F8591949134
:100140008FB7F894EC91E22BEC938FBF089508954C
:10015000AF92BF92CF92DF92EF92FF920F931F93D5
:10016000CF93DF936C017B018B01040F151FEB0113
:100170005E01AE18BF08C017D10759F06991D601CA
:10018000ED91FC910190F081E02DC6010995892B3C
:1001900079F7C501DF91CF911F910F91FF90EF90FB
:1001A000DF90CF90BF90AF900895FC01538D448DA8
:1001B000252F30E0842F90E0821B930B541710F012
:1001C000CF96089501970895FC01918D828D98171F
:1001D00061F0A28DAE0FBF2FB11D5D968C91928DF7
:1001E0009F5F9F73928F90E008958FEF9FEF089528
:1001F0002FB7F89480914C0290914D02A0914E023D
:10020000B0914F022FBF8093580290935902A09350
:100210005A02B0935B0280E592E00E94E40097FFEF
:1002200026C02FB7F89480914C0290914D02A09176
:100230004E02B0914F022FBF409158025091590287
:1002400060915A0270915B02841B950BA60BB70B51
:10025000409154025091550260915602709157029C
:1002600084179507A607B707B0F28FEF9FEF0895A1
:10027000FC01918D828D981731F0828DE80FF11D70
:10028000858D90E008958FEF9FEF0895FC01918D8B
:10029000228D892F90E0805C9F4F821B91098F7384
:1002A0009927089580E592E00E94460121E0892B7C
:1002B00009F420E0822F089580E090E0892B29F056
:1002C0000E94520181110C9400000895FC01A48D3C
:1002D000A80FB92FB11DA35ABF4F2C91848D90E068
:1002E00001968F739927848FA689B7892C93A0894B
:1002F000B1898C91837080648C93938D848D9813D5
:1003000006C00288F389E02D80818F7D8083089567
:10031000EF92FF920F931F93CF93DF93EC0181E055
:10032000888F9B8D8C8D98131AC0E889F9898081FC
:1003300085FF15C09FB7F894EE89FF896083E8892F
:10034000F98980818370806480839FBF81E090E021
:10035000DF91CF911F910F91FF90EF900895F62EAE
:100360000B8D10E00F5F1F4F0F731127E02E8C8D48
:100370008E110CC00FB607FCFACFE889F98980818D
:1003800085FFF5CFCE010E946601F1CFEB8DEC0F1A
:10039000FD2FF11DE35AFF4FF0829FB7F8940B8FAA
:1003A000EA89FB8980818062CFCFCF93DF93EC0114
:1003B000888D8823B9F0AA89BB89E889F9898C914D
:1003C00085FD03C0808186FD0DC00FB607FCF7CF09
:1003D0008C9185FFF2CF808185FFEDCFCE010E9409
:1003E0006601E9CFDF91CF91089590E0FC01E859D3
:1003F000FF4F2491FC01EC55FF4F3491FC01E05775
:10040000FF4FE491EE23C9F0222339F0233001F1AC
:10041000A8F4213019F1223029F1F0E0EE0FFF1F8E
:10042000E458FF4FA591B4918FB7F894EC91611106
:1004300026C030953E233C938FBF08952730A9F006
:100440002830C9F0243049F7809180008F7D03C0A7
:10045000809180008F7780938000DFCF84B58F7785
:1004600084BDDBCF84B58F7DFBCF8091B0008F77CB
:100470008093B000D2CF8091B0008F7DF9CF3E2B1A
:10048000DACF3FB7F8948091450290914602A0914F
:100490004702B091480226B5A89B05C02F3F19F02E
:1004A0000196A11DB11D3FBFBA2FA92F982F8827F4
:1004B000BC01CD01620F711D811D911D42E0660FCF
:1004C000771F881F991F4A95D1F708958F929F92A1
:1004D000AF92BF92CF92DF92EF92FF926B017C01BD
:1004E0000E9441024B015C01C114D104E104F104FA
:1004F000B9F00E944102681979098A099B09683E8E
:1005000073408105910580F321E0C21AD108E1080A
:10051000F10888EE880E83E0981EA11CB11CE4CF80
:10052000FF90EF90DF90CF90BF90AF909F908F9013
:100530000895BF92CF92DF92EF92FF920F931F9395
:10054000CF93DF938B01D0E0C0E06C01990FEE08F0
:10055000FF0897E0B92E61E08B2D0E94F501B3945E
:100560008DE0B812F8CFC701B6010E94660287E09D
:10057000B82E60E08B2D0E94F501B3948DE0B81287
:10058000F8CFC701B6010E94660221960C171D071D
:1005900001F7DF91CF911F910F91FF90EF90DF90C6
:1005A000CF90BF900895CF93DF93FC01019000207E
:1005B000E9F73197AF01481B590BBC0180E592E088
:1005C0000E94A800EC0142E050E06CE171E080E59F
:1005D00092E00E94A8008C0F9D1FDF91CF9108959B
:1005E000CF93DF93EC0188819981009711F00E94ED
:1005F0004E0A198218821D821C821B821A82DF9188
:10060000CF910895FC0180819181009711F00C94A5
:100610004E0A0895EF92FF920F931F93CF93DF93AB
:100620000091F3021091F402FC01C081D181F80124
:1006300081918F018823B9F0082E000C990B0E943C
:10064000940B7C018991082E000C990B0E94940B4D
:10065000E816F90661F380E0DF91CF911F910F91C9
:10066000FF90EF90089581E0F7CF2091F70230914D
:10067000F8028091F1029091F20228173907F1F403
:100680008091F3029091F4026091ED027091EE027C
:100690000097D1F061157105A1F4232BC1F0FC0185
:1006A000808190E008C0232B91F0FB01808190E0D5
:1006B00091958195910921E0892B09F020E0822F05
:1006C00008950E94A50BF7CF6115710561F721E030
:1006D000F6CF0F931F93CF93DF93EC01888199811D
:1006E000009759F02A813B812617370730F081E0C7
:1006F000DF91CF911F910F9108958B016F5F7F4F15
:100700000E94D70A009759F0998388831B830A8334
:100710002C813D81232B59F7FC011082E8CF80E02A
:10072000E7CFEF92FF920F931F93CF93DF93EC01EC
:100730007B018A01BA010E94690381110BC0CE01BD
:100740000E94F002CE01DF91CF911F910F91FF9097
:10075000EF9008951D830C83B701888199810E94D1
:10076000AE0BF0CF4F925F926F927F928F929F92DB
:10077000AF92BF92CF92DF92EF92FF920F931F93AF
:10078000CF93DF93CDB7DEB72E970FB6F894DEBFC9
:100790000FBECDBFADB6BEB6880F991F2DB73EB701
:1007A000281B390B0FB6F8943EBF0FBE2DBF0DB7F7
:1007B0001EB70F5F1F4F6801C80ED91E780136E0C3
:1007C000432E512C612C712C0E948508A3019201AB
:1007D0000E9412096F5F7F4F8F4F9F4FF701619308
:1007E00071937F01CE16DF0679F750E040E06EE1AD
:1007F00071E08DEE92E00E9491039E012F5F3F4FCA
:100800006901F801819091908F0190924B02809242
:100810004A02F1E08F16910409F07DC061E087E0A3
:100820000E94F50168EE73E080E090E00E946602AD
:1008300060E087E00E94F50168EE73E080E090E000
:100840000E9466021A8619861C861B861E861D86D5
:100850006091ED027091EE026115710541F04091D9
:10086000F1025091F202CE0109960E9491034AE0F2
:10087000B601C4010E94DD08F60101900020E9F7ED
:100880003197EC19FD09B9F08D849E848E0E9F1E60
:10089000B401CE0109960E946903882309F491C02E
:1008A00029853A858D859E85B601820F931F0E940A
:1008B000AE0B9E868D8669857A856115710509F472
:1008C00085C04D855E858DEE92E00E949103CE013C
:1008D00009960E9402030E151F0509F092CF0FB66C
:1008E000F894BEBE0FBEADBE2E960FB6F894DEBF16
:1008F0000FBECDBFDF91CF911F910F91FF90EF9071
:10090000DF90CF90BF90AF909F908F907F906F902F
:100910005F904F90089522E08216910469F461E09F
:1009200088E00E94F50168EE73E080E090E00E94AC
:10093000660260E088E07ECF33E08316910469F4BC
:1009400061E089E00E94F50168EE73E080E090E0EC
:100950000E94660260E089E06DCF84E08816910411
:1009600069F461E08AE00E94F50168EE73E080E0DE
:1009700090E00E94660260E08AE05CCF95E0891614
:10098000910469F461E08BE00E94F50168EE73E088
:1009900080E090E00E94660260E08BE04BCFE6E0F2
:1009A0008E16910409F04ECF61E08CE00E94F501B3
:1009B00068EE73E080E090E00E94660260E08CE008
:1009C00039CFCE0109960E94F00275CF8DEE92E0EC
:1009D0000E94F0027CCFFC011182108213821282ED
:1009E00015821482FB0101900020E9F73197AF01D5
:1009F000461B570B0C9491030F931F93CF93DF93D8
:100A0000CDB7DEB728970FB6F894DEBF0FBECDBFC7
:100A10008FE191E00E94D30280E592E00E944601BE
:100A2000892BD1F380E592E00E944601892B09F4DD
:100A30004FC01A8219821C821B821E821D8250E0C6
:100A400040E06EE171E0CE0101960E9491030E94A8
:100A5000F80097FD1BC08F8318860D811E810F5FE4
:100A60001F4FB801CE0101960E946903882379F3D4
:100A700029813A818D819E81BE01695F7F4F820FFE
:100A8000931F0E94AE0B1E830D83E1CF8091F30272
:100A90009091F402009749F169817A81611571059D
:100AA00011F14091F5025091F6022D813E814217DD
:100AB0005307C8F00E94AE0B8D819E819093F8027F
:100AC0008093F7021E821D82CE0101960E940203CE
:100AD00028960FB6F894DEBF0FBECDBFDF91CF9141
:100AE0001F910F9108950E944E0A89819A819093D7
:100AF000F4028093F3028B819C819093F6028093A1
:100B0000F5028D819E819093F8028093F7021A82FC
:100B100019821C821B82D6CF1F920F920FB60F92A2
:100B200011242F933F934F935F936F937F938F93F2
:100B30009F93AF93BF93EF93FF9380E592E00E9462
:100B40006601FF91EF91BF91AF919F918F917F913E
:100B50006F915F914F913F912F910F900FBE0F902A
:100B60001F9018951F920F920FB60F9211242F937A
:100B70008F939F93EF93FF93E0916002F091610256
:100B80008081E0916602F091670282FD1BC0908136
:100B9000809169028F5F8F7320916A02821741F002
:100BA000E0916902F0E0E05BFD4F958F8093690270
:100BB000FF91EF919F918F912F910F900FBE0F900A
:100BC0001F9018958081F4CF1F920F920FB60F924D
:100BD00011242F933F938F939F93AF93BF93809153
:100BE0004C0290914D02A0914E02B0914F02309173
:100BF000440223E0230F2D3758F50196A11DB11DA6
:100C00002093440280934C0290934D02A0934E0295
:100C1000B0934F028091450290914602A091470205
:100C2000B09148020196A11DB11D80934502909399
:100C30004602A0934702B0934802BF91AF919F91A3
:100C40008F913F912F910F900FBE0F901F9018958D
:100C500026E8230F0296A11DB11DD2CFE0E5F2E0F8
:100C60001382128288EE93E0A0E0B0E08483958343
:100C7000A683B7838EE091E09183808385EC90E03A
:100C80009587848784EC90E09787868780EC90E056
:100C9000918B808B81EC90E0938B828B82EC90E047
:100CA000958B848B86EC90E0978B868B118E128EC1
:100CB000138E148E6EE171E083EF92E00E94EB04DC
:100CC0006EE171E08DEE92E00C94EB04CF93DF9334
:100CD00000D000D000D0CDB7DEB7789484B5826064
:100CE00084BD84B5816084BD85B5826085BD85B5D0
:100CF000816085BD80916E00816080936E0010924E
:100D000081008091810082608093810080918100C8
:100D10008160809381008091800081608093800059
:100D20008091B10084608093B1008091B0008160B7
:100D30008093B00080917A00846080937A008091E3
:100D40007A00826080937A0080917A00816080933B
:100D50007A0080917A00806880937A001092C100B6
:100D6000E0916002F091610282E08083E0915C0298
:100D7000F0915D021082E0915E02F0915F028FECD3
:100D8000808310926802E0916402F091650286E02F
:100D90008083E0916202F0916302808180618083B0
:100DA000E0916202F0916302808188608083E0912B
:100DB0006202F0916302808180688083E091620228
:100DC000F091630280818F7D808317E0812F0E94E4
:100DD00088001F5F1D30D1F783E00E94880080E407
:100DE00080937C0080917A00806480937A00809167
:100DF0007A0086FDFCCF8091780060917900762F93
:100E0000682F072E000C880B990B61157105810561
:100E1000910511F00E94D40840E0E42E40E0F42E49
:100E200003E0DD24D39458E0C52E66E0A62E85E0CD
:100E3000982E94E0892E27E0B22E32E0732E68E8D7
:100E400073E180E090E00E946602E0914902E9309F
:100E500008F0CDC00E2E000CFF0BEF5CF84F0C9489
:100E6000AC093A077A079207A307B407C507D70763
:100E7000EB07030887E391E00E94D30282E491E04C
:100E80000E94D3020E94FC0461E571E0CE0101964C
:100E90000E94EB048091F7029091F8022D813E812F
:100EA00010E08217930741F411E0892B29F0CE015D
:100EB00001960E940A03182FCE0101960E94020398
:100EC000112369F0D092490283E591E00E94D30298
:100ED00063E070E088EE93E00E94990288C0B092CF
:100EE000490286E691E00E94D30265E070E08CE260
:100EF00091E0F2CF89E791E00E94D30283E090E095
:100F00000E94B2030E94FC040E943503882329F04A
:100F10007092490285E891E0D9CFB09249028EE9FA
:100F200091E0E1CF8AEA91E00E94D30285E090E06F
:100F30000E94B2030E94FC040E943503882369F3D7
:100F400000934902E7CF86EB91E00E94D30287E04D
:100F500090E00E94B2030E94FC040E9435038823A3
:100F6000E1F280924902D6CF82EC91E00E94D30256
:100F700089E090E00E94B2030E94FC040E943503C5
:100F8000882359F290924902C5CF8EEC91E00E94DD
:100F9000D3028BE090E00E94B2030E94FC040E9406
:100FA0003503882309F4B9CFA0924902B3CF8AED63
:100FB00091E00E94D3028DE090E00E94B2030E9473
:100FC000FC040E943503882309F4A7CFC09249028C
:100FD00086EE91E07BCF8EEF91E00E94D30265E038
:100FE00070E084E690E00E949902C0924902E11408
:100FF000F10409F424CF0E945201882309F417CF89
:101000000E94000014CF88E092E00E94D3020E9468
:10101000FC0461E571E0CE0101960E94EB04809131
:10102000F7029091F8022D813E8110E0821793071C
:1010300041F411E0892B29F0CE0101960E940A03A8
:10104000182FCE0101960E940203112329F0D0929D
:1010500049028FE192E03ACF0093490281E392E0A6
:1010600042CF8DEE92E00E94020383EF92E00C9457
:1010700002038F929F92AF92BF92CF92DF92EF9234
:10108000FF92CF93DF93EC01688179818A819B8104
:10109000611571058105910521F464E279ED8BE517
:1010A00097E02DE133EF41E050E00E941209490141
:1010B0005A019B01AC01A7EAB1E40E9431096B011E
:1010C0007C01ACEEB4EFA50194010E943F09C60E6D
:1010D000D71EE81EF91EF7FE06C081E0C81AD10827
:1010E000E10880E8F80AC882D982EA82FB82C70157
:1010F000B6019F77DF91CF91FF90EF90DF90CF9077
:10110000BF90AF909F908F9008958F929F92AF92D3
:10111000BF92CF92DF92EF92FF92609100017091A7
:101120000101809102019091030161157105810512
:10113000910521F464E279ED8BE597E02DE133EF41
:1011400041E050E00E94120949015A019B01AC01A3
:10115000A7EAB1E40E9431096B017C01ACEEB4EF67
:10116000A50194010E943F09C60ED71EE81EF91E74
:10117000F7FE06C081E0C81AD108E10880E8F80A45
:10118000C0920001D0920101E0920201F0920301AD
:10119000C701B6019F77FF90EF90DF90CF90BF908F
:1011A000AF909F908F90089560930001709301011C
:1011B00080930201909303010895BB274A3031F4D4
:1011C000992322F4BDE2909581959F4F0C94E908F4
:1011D000BB27FB015527AA27880F991FAA1FA41711
:1011E00010F0A41B83955051B9F7A05DAA3308F005
:1011F000A95DA193009779F7B111B1931192CB0139
:101200000C940209DC01FC01672F71917723E1F74F
:10121000329704C07C916D9370836291AE17BF07C3
:10122000C8F30895052E97FB1EF400940E94290927
:1012300057FD07D00E947B0907FC03D04EF40C94A5
:10124000290950954095309521953F4F4F4F5F4F5D
:10125000089590958095709561957F4F8F4F9F4F22
:1012600008950E949D09A59F900DB49F900DA49F85
:10127000800D911D11240895B7FF0C9431090E942F
:101280003109821B930B08952F923F924F925F92E8
:101290006F927F928F929F92AF92BF92CF92DF9286
:1012A000EF92FF920F931F93CF93DF93CDB7DEB7EB
:1012B000CA1BDB0B0FB6F894DEBF0FBECDBF09947F
:1012C0002A88398848885F846E847D848C849B84D6
:1012D000AA84B984C884DF80EE80FD800C811B81E4
:1012E000AA81B981CE0FD11D0FB6F894DEBF0FBE13
:1012F000CDBFED010895A1E21A2EAA1BBB1BFD0173
:101300000DC0AA1FBB1FEE1FFF1FA217B307E407E4
:10131000F50720F0A21BB30BE40BF50B661F771F3C
:10132000881F991F1A9469F760957095809590951C
:101330009B01AC01BD01CF010895A29FB001B39FF5
:10134000C001A39F700D811D1124911DB29F700DCE
:10135000811D1124911D0895EE0FFF1F0590F4913A
:10136000E02D09940F931F93CF93DF938230910563
:1013700010F482E090E0E091FB02F091FC0230E09A
:1013800020E0B0E0A0E0309799F42115310509F490
:101390004AC0281B390B24303105D8F58A819B813E
:1013A0006115710589F1FB0193838283FE0111C0F0
:1013B000408151810281138148175907E0F0481795
:1013C000590799F4109761F012960C93129713969F
:1013D0001C933296CF01DF91CF911F910F91089509
:1013E0000093FB021093FC02F4CF2115310551F05C
:1013F0004217530738F0A901DB019A01BD01DF0153
:10140000F801C1CFEF01F9CF9093FC028093FB026A
:10141000CDCFFE01E20FF31F81939193225031094A
:1014200039832883D7CF2091F9023091FA02232BF8
:1014300041F420910601309107013093FA02209384
:10144000F90220910401309105012115310541F483
:101450002DB73EB74091080150910901241B350B6F
:10146000E091F902F091FA02E217F307A0F42E1BC3
:101470003F0B2817390778F0AC014E5F5F4F2417F8
:10148000350748F04E0F5F1F5093FA024093F90260
:10149000819391939FCFF0E0E0E09CCFCF93DF93D7
:1014A0000097E9F0FC01329713821282A091FB02AF
:1014B000B091FC02ED0130E020E01097A1F4208112
:1014C0003181820F931F2091F9023091FA0228177F
:1014D000390709F061C0F093FA02E093F902DF9155
:1014E000CF910895EA01CE17DF07E8F54A815B81C5
:1014F0009E0141155105B1F7E901FB83EA8349914A
:101500005991C40FD51FEC17FD0761F480819181BB
:101510000296840F951FE9019983888382819381C4
:101520009B838A83F0E0E0E012968D919C91139763
:101530000097B9F52D913C911197CD010296820F3C
:10154000931F2091F9023091FA022817390739F6D2
:10155000309751F51092FC021092FB02B093FA0200
:10156000A093F902BCCFD383C28340815181840F01
:10157000951FC817D90761F44E5F5F4F8881998125
:10158000480F591F518340838A819B8193838283B3
:101590002115310509F0B0CFF093FC02E093FB0276
:1015A0009ECFFD01DC01C0CF13821282D7CFB0E005
:1015B000A0E0EDEDFAE00C9446098C01009751F49F
:1015C000CB010E94B2098C01C801CDB7DEB7E0E1C2
:1015D0000C946209FC01E60FF71F9C0122503109AF
:1015E000E217F30708F49DC0D901CD91DC91119762
:1015F000C617D70798F0C530D10530F3CE01049750
:101600008617970708F3C61BD70B2297C193D19370
:101610006D937C93CF010E944E0AD6CF5B01AC1A2A
:10162000BD0A4C018C0E9D1EA091FB02B091FC02E4
:10163000512C412CF12CE12C109731F58091F902BD
:101640009091FA028815990509F05CC04616570674
:1016500008F058C08091040190910501009741F471
:101660008DB79EB74091080150910901841B950BDD
:10167000E817F90708F055C0F093FA02E093F90271
:10168000F90171836083A0CF8D919C91119712967F
:101690006C90129713967C901397A815B90559F57D
:1016A0006C0142E0C40ED11CCA14DB0420F1AC0171
:1016B0004A195B09DA011296159780F062827382EB
:1016C00051834083D9016D937C93E114F10471F04F
:1016D000D7011396FC93EE93129776CF22968C0F38
:1016E0009D1FF90191838083F301EFCFF093FC02FA
:1016F000E093FB0269CF4816590608F42C017D01DE
:10170000D3019ACFCB010E94B2097C01009749F026
:10171000AE01B8010E949C0BC8010E944E0A8701CD
:1017200053CF10E000E050CF9111089581548A51B9
:1017300008F4805E855A0895FB01DC0102C0019027
:101740000D9241505040D8F70895FB01DC018D9176
:10175000019080190110D9F3990B0895FB01DC0168
:1017600001900D920020E1F7089510E0CDE5D0E062
:1017700004C0FE010E94AC092196CE35D107C9F7FD
:04178000F894FFCF0B
:10178400010000000000FD0280000000000088014C
:10179400A800D500D5014601E40038010D0A002A4D
:1017A40020496E7365726120737561207265737070
:1017B4006F737461202A002A20494E4943494F20FF
:1017C4002A00436F6D656361723F2028732F6E2971
:1017D4000073004A6F676F20636F6D65C3A7616E06
:1017E400646F2E2E2E004A6F676F206EC3A36F2086
:1017F400696E69636961646F002A204E6976656C5D
:101804002031202A005061726162656E732120705C
:10181400726F78696D6F206E6976656C2E00457203
:10182400726F6F6F6F6F212121002A204E697665D8
:101834006C2032202A002A204E6976656C203320E1
:101844002A002A204E6976656C2034202A002A203A
:101854004E6976656C2035202A002A204E6976650B
:101864006C2036202A005061726162656E732120FB
:10187400566F63C3AA2067616E686F752E00476157
:101884006D65204F766572006A6F676172206E6FB6
:1018940076616D656E74653F2028732F6E29004A4A
:1018A4006F676F20636F6D6563616E646F2E2E2E9C
:1018B400004A6F676F206E616F20696E69636961AA
:0418C400646F00004D
:00000001FF
